{
  "_format": "hh-sol-artifact-1",
  "contractName": "OrderBookBuckets",
  "sourceName": "contracts/OrderBookBuckets.sol",
  "abi": [
    {
      "inputs": [
        {
          "internalType": "address",
          "name": "initialOwner",
          "type": "address"
        },
        {
          "internalType": "address",
          "name": "matcherKernel_",
          "type": "address"
        },
        {
          "internalType": "address",
          "name": "vault_",
          "type": "address"
        },
        {
          "internalType": "address",
          "name": "baseToken_",
          "type": "address"
        },
        {
          "internalType": "address",
          "name": "quoteToken_",
          "type": "address"
        },
        {
          "internalType": "uint128",
          "name": "minOrderQuantity_",
          "type": "uint128"
        },
        {
          "internalType": "uint128",
          "name": "minOrderNotional_",
          "type": "uint128"
        }
      ],
      "stateMutability": "nonpayable",
      "type": "constructor"
    },
    {
      "inputs": [
        {
          "internalType": "uint8",
          "name": "side",
          "type": "uint8"
        },
        {
          "internalType": "uint32",
          "name": "expected",
          "type": "uint32"
        },
        {
          "internalType": "uint32",
          "name": "actual",
          "type": "uint32"
        }
      ],
      "name": "ConsumedCountMismatch",
      "type": "error"
    },
    {
      "inputs": [
        {
          "internalType": "uint64",
          "name": "orderId",
          "type": "uint64"
        }
      ],
      "name": "InactiveOrder",
      "type": "error"
    },
    {
      "inputs": [],
      "name": "InvalidOrderCount",
      "type": "error"
    },
    {
      "inputs": [
        {
          "internalType": "uint128",
          "name": "price",
          "type": "uint128"
        },
        {
          "internalType": "uint128",
          "name": "quantity",
          "type": "uint128"
        }
      ],
      "name": "InvalidOrderParameters",
      "type": "error"
    },
    {
      "inputs": [
        {
          "internalType": "uint8",
          "name": "side",
          "type": "uint8"
        }
      ],
      "name": "InvalidSide",
      "type": "error"
    },
    {
      "inputs": [
        {
          "internalType": "uint256",
          "name": "length",
          "type": "uint256"
        }
      ],
      "name": "InvalidTradePayloadLength",
      "type": "error"
    },
    {
      "inputs": [],
      "name": "MatcherCallFailed",
      "type": "error"
    },
    {
      "inputs": [
        {
          "internalType": "uint8",
          "name": "status",
          "type": "uint8"
        }
      ],
      "name": "MatcherKernelError",
      "type": "error"
    },
    {
      "inputs": [
        {
          "internalType": "uint64",
          "name": "orderId",
          "type": "uint64"
        },
        {
          "internalType": "address",
          "name": "caller",
          "type": "address"
        }
      ],
      "name": "NotOrderOwner",
      "type": "error"
    },
    {
      "inputs": [
        {
          "internalType": "uint128",
          "name": "notional",
          "type": "uint128"
        },
        {
          "internalType": "uint128",
          "name": "minimumNotional",
          "type": "uint128"
        }
      ],
      "name": "OrderBelowMinimumNotional",
      "type": "error"
    },
    {
      "inputs": [
        {
          "internalType": "uint128",
          "name": "quantity",
          "type": "uint128"
        },
        {
          "internalType": "uint128",
          "name": "minimumQuantity",
          "type": "uint128"
        }
      ],
      "name": "OrderBelowMinimumQuantity",
      "type": "error"
    },
    {
      "inputs": [
        {
          "internalType": "address",
          "name": "owner",
          "type": "address"
        }
      ],
      "name": "OwnableInvalidOwner",
      "type": "error"
    },
    {
      "inputs": [
        {
          "internalType": "address",
          "name": "account",
          "type": "address"
        }
      ],
      "name": "OwnableUnauthorizedAccount",
      "type": "error"
    },
    {
      "inputs": [
        {
          "internalType": "uint8",
          "name": "side",
          "type": "uint8"
        },
        {
          "internalType": "uint128",
          "name": "price",
          "type": "uint128"
        },
        {
          "internalType": "uint256",
          "name": "skipped",
          "type": "uint256"
        },
        {
          "internalType": "uint256",
          "name": "limit",
          "type": "uint256"
        }
      ],
      "name": "TombstoneLimitExceeded",
      "type": "error"
    },
    {
      "inputs": [],
      "name": "TradingDisabled",
      "type": "error"
    },
    {
      "inputs": [
        {
          "internalType": "uint64",
          "name": "bidOrderId",
          "type": "uint64"
        },
        {
          "internalType": "uint64",
          "name": "askOrderId",
          "type": "uint64"
        }
      ],
      "name": "UnknownTradeOrder",
      "type": "error"
    },
    {
      "anonymous": false,
      "inputs": [
        {
          "indexed": true,
          "internalType": "uint64",
          "name": "orderId",
          "type": "uint64"
        }
      ],
      "name": "OrderCancelled",
      "type": "event"
    },
    {
      "anonymous": false,
      "inputs": [
        {
          "indexed": true,
          "internalType": "uint64",
          "name": "bidOrderId",
          "type": "uint64"
        },
        {
          "indexed": true,
          "internalType": "uint64",
          "name": "askOrderId",
          "type": "uint64"
        },
        {
          "indexed": false,
          "internalType": "uint128",
          "name": "price",
          "type": "uint128"
        },
        {
          "indexed": false,
          "internalType": "uint128",
          "name": "quantity",
          "type": "uint128"
        }
      ],
      "name": "OrderFilled",
      "type": "event"
    },
    {
      "anonymous": false,
      "inputs": [
        {
          "indexed": true,
          "internalType": "uint64",
          "name": "orderId",
          "type": "uint64"
        },
        {
          "indexed": true,
          "internalType": "address",
          "name": "trader",
          "type": "address"
        },
        {
          "indexed": true,
          "internalType": "uint8",
          "name": "side",
          "type": "uint8"
        },
        {
          "indexed": false,
          "internalType": "uint128",
          "name": "price",
          "type": "uint128"
        },
        {
          "indexed": false,
          "internalType": "uint128",
          "name": "quantity",
          "type": "uint128"
        }
      ],
      "name": "OrderPlaced",
      "type": "event"
    },
    {
      "anonymous": false,
      "inputs": [
        {
          "indexed": true,
          "internalType": "address",
          "name": "previousOwner",
          "type": "address"
        },
        {
          "indexed": true,
          "internalType": "address",
          "name": "newOwner",
          "type": "address"
        }
      ],
      "name": "OwnershipTransferred",
      "type": "event"
    },
    {
      "anonymous": false,
      "inputs": [
        {
          "indexed": false,
          "internalType": "uint128",
          "name": "minOrderQuantity",
          "type": "uint128"
        },
        {
          "indexed": false,
          "internalType": "uint128",
          "name": "minOrderNotional",
          "type": "uint128"
        },
        {
          "indexed": false,
          "internalType": "bool",
          "name": "tradingEnabled",
          "type": "bool"
        }
      ],
      "name": "TradingConfigUpdated",
      "type": "event"
    },
    {
      "inputs": [],
      "name": "MATCH_DEPTH",
      "outputs": [
        {
          "internalType": "uint256",
          "name": "",
          "type": "uint256"
        }
      ],
      "stateMutability": "view",
      "type": "function"
    },
    {
      "inputs": [],
      "name": "MAX_SKIPS",
      "outputs": [
        {
          "internalType": "uint256",
          "name": "",
          "type": "uint256"
        }
      ],
      "stateMutability": "view",
      "type": "function"
    },
    {
      "inputs": [],
      "name": "PRICE_SCALE",
      "outputs": [
        {
          "internalType": "uint256",
          "name": "",
          "type": "uint256"
        }
      ],
      "stateMutability": "view",
      "type": "function"
    },
    {
      "inputs": [],
      "name": "SIDE_ASK",
      "outputs": [
        {
          "internalType": "uint8",
          "name": "",
          "type": "uint8"
        }
      ],
      "stateMutability": "view",
      "type": "function"
    },
    {
      "inputs": [],
      "name": "SIDE_BID",
      "outputs": [
        {
          "internalType": "uint8",
          "name": "",
          "type": "uint8"
        }
      ],
      "stateMutability": "view",
      "type": "function"
    },
    {
      "inputs": [],
      "name": "baseToken",
      "outputs": [
        {
          "internalType": "address",
          "name": "",
          "type": "address"
        }
      ],
      "stateMutability": "view",
      "type": "function"
    },
    {
      "inputs": [],
      "name": "bestAsk",
      "outputs": [
        {
          "internalType": "uint128",
          "name": "",
          "type": "uint128"
        }
      ],
      "stateMutability": "view",
      "type": "function"
    },
    {
      "inputs": [],
      "name": "bestBid",
      "outputs": [
        {
          "internalType": "uint128",
          "name": "",
          "type": "uint128"
        }
      ],
      "stateMutability": "view",
      "type": "function"
    },
    {
      "inputs": [
        {
          "internalType": "uint64",
          "name": "orderId",
          "type": "uint64"
        }
      ],
      "name": "cancelOrder",
      "outputs": [],
      "stateMutability": "nonpayable",
      "type": "function"
    },
    {
      "inputs": [
        {
          "internalType": "uint8",
          "name": "side",
          "type": "uint8"
        },
        {
          "internalType": "uint128",
          "name": "price",
          "type": "uint128"
        }
      ],
      "name": "getLevelState",
      "outputs": [
        {
          "internalType": "uint256",
          "name": "headIndex",
          "type": "uint256"
        },
        {
          "internalType": "uint128",
          "name": "totalOpenQuantity",
          "type": "uint128"
        },
        {
          "internalType": "uint256",
          "name": "orderCount",
          "type": "uint256"
        }
      ],
      "stateMutability": "view",
      "type": "function"
    },
    {
      "inputs": [
        {
          "internalType": "uint8",
          "name": "side",
          "type": "uint8"
        }
      ],
      "name": "getPriceLevels",
      "outputs": [
        {
          "internalType": "uint128[]",
          "name": "levels",
          "type": "uint128[]"
        }
      ],
      "stateMutability": "view",
      "type": "function"
    },
    {
      "inputs": [],
      "name": "getTopOfBook",
      "outputs": [
        {
          "components": [
            {
              "internalType": "uint128",
              "name": "bestBidPrice",
              "type": "uint128"
            },
            {
              "internalType": "uint128",
              "name": "bestBidQuantity",
              "type": "uint128"
            },
            {
              "internalType": "uint128",
              "name": "bestAskPrice",
              "type": "uint128"
            },
            {
              "internalType": "uint128",
              "name": "bestAskQuantity",
              "type": "uint128"
            },
            {
              "internalType": "bool",
              "name": "crossed",
              "type": "bool"
            }
          ],
          "internalType": "struct OrderBookBuckets.TopOfBook",
          "name": "top",
          "type": "tuple"
        }
      ],
      "stateMutability": "view",
      "type": "function"
    },
    {
      "inputs": [
        {
          "internalType": "uint8",
          "name": "side",
          "type": "uint8"
        },
        {
          "internalType": "uint256",
          "name": "depth",
          "type": "uint256"
        }
      ],
      "name": "getTopOrders",
      "outputs": [
        {
          "components": [
            {
              "internalType": "uint64",
              "name": "orderId",
              "type": "uint64"
            },
            {
              "internalType": "uint128",
              "name": "price",
              "type": "uint128"
            },
            {
              "internalType": "uint128",
              "name": "quantity",
              "type": "uint128"
            },
            {
              "internalType": "uint128",
              "name": "filled",
              "type": "uint128"
            },
            {
              "internalType": "uint64",
              "name": "timestamp",
              "type": "uint64"
            },
            {
              "internalType": "uint8",
              "name": "side",
              "type": "uint8"
            }
          ],
          "internalType": "struct MatcherCodec.Order[]",
          "name": "topOrders",
          "type": "tuple[]"
        }
      ],
      "stateMutability": "view",
      "type": "function"
    },
    {
      "inputs": [],
      "name": "matcherKernel",
      "outputs": [
        {
          "internalType": "address",
          "name": "",
          "type": "address"
        }
      ],
      "stateMutability": "view",
      "type": "function"
    },
    {
      "inputs": [],
      "name": "minOrderNotional",
      "outputs": [
        {
          "internalType": "uint128",
          "name": "",
          "type": "uint128"
        }
      ],
      "stateMutability": "view",
      "type": "function"
    },
    {
      "inputs": [],
      "name": "minOrderQuantity",
      "outputs": [
        {
          "internalType": "uint128",
          "name": "",
          "type": "uint128"
        }
      ],
      "stateMutability": "view",
      "type": "function"
    },
    {
      "inputs": [],
      "name": "nextOrderId",
      "outputs": [
        {
          "internalType": "uint64",
          "name": "",
          "type": "uint64"
        }
      ],
      "stateMutability": "view",
      "type": "function"
    },
    {
      "inputs": [
        {
          "internalType": "uint64",
          "name": "orderId",
          "type": "uint64"
        }
      ],
      "name": "orders",
      "outputs": [
        {
          "internalType": "uint64",
          "name": "orderId",
          "type": "uint64"
        },
        {
          "internalType": "address",
          "name": "trader",
          "type": "address"
        },
        {
          "internalType": "uint128",
          "name": "price",
          "type": "uint128"
        },
        {
          "internalType": "uint128",
          "name": "quantity",
          "type": "uint128"
        },
        {
          "internalType": "uint128",
          "name": "filled",
          "type": "uint128"
        },
        {
          "internalType": "uint64",
          "name": "timestamp",
          "type": "uint64"
        },
        {
          "internalType": "uint8",
          "name": "side",
          "type": "uint8"
        },
        {
          "internalType": "uint128",
          "name": "reservedAmount",
          "type": "uint128"
        },
        {
          "internalType": "bool",
          "name": "isActive",
          "type": "bool"
        }
      ],
      "stateMutability": "view",
      "type": "function"
    },
    {
      "inputs": [],
      "name": "owner",
      "outputs": [
        {
          "internalType": "address",
          "name": "",
          "type": "address"
        }
      ],
      "stateMutability": "view",
      "type": "function"
    },
    {
      "inputs": [
        {
          "internalType": "uint128",
          "name": "price",
          "type": "uint128"
        },
        {
          "internalType": "uint128",
          "name": "quantity",
          "type": "uint128"
        },
        {
          "internalType": "uint8",
          "name": "side",
          "type": "uint8"
        }
      ],
      "name": "placeOrder",
      "outputs": [
        {
          "internalType": "uint64",
          "name": "orderId",
          "type": "uint64"
        }
      ],
      "stateMutability": "nonpayable",
      "type": "function"
    },
    {
      "inputs": [
        {
          "internalType": "uint8",
          "name": "side",
          "type": "uint8"
        },
        {
          "internalType": "uint128",
          "name": "price",
          "type": "uint128"
        },
        {
          "internalType": "uint256",
          "name": "limit",
          "type": "uint256"
        }
      ],
      "name": "prunePriceLevel",
      "outputs": [],
      "stateMutability": "nonpayable",
      "type": "function"
    },
    {
      "inputs": [
        {
          "internalType": "uint128",
          "name": "price",
          "type": "uint128"
        },
        {
          "internalType": "uint128",
          "name": "quantity",
          "type": "uint128"
        },
        {
          "internalType": "uint8",
          "name": "side",
          "type": "uint8"
        }
      ],
      "name": "quoteOrder",
      "outputs": [
        {
          "components": [
            {
              "internalType": "uint8",
              "name": "status",
              "type": "uint8"
            },
            {
              "internalType": "uint32",
              "name": "tradeCount",
              "type": "uint32"
            },
            {
              "internalType": "uint32",
              "name": "consumedBidCount",
              "type": "uint32"
            },
            {
              "internalType": "uint32",
              "name": "consumedAskCount",
              "type": "uint32"
            },
            {
              "internalType": "uint128",
              "name": "executedBaseQuantity",
              "type": "uint128"
            },
            {
              "internalType": "uint128",
              "name": "executedQuoteQuantity",
              "type": "uint128"
            },
            {
              "components": [
                {
                  "internalType": "uint64",
                  "name": "bidOrderId",
                  "type": "uint64"
                },
                {
                  "internalType": "uint64",
                  "name": "askOrderId",
                  "type": "uint64"
                },
                {
                  "internalType": "uint128",
                  "name": "price",
                  "type": "uint128"
                },
                {
                  "internalType": "uint128",
                  "name": "quantity",
                  "type": "uint128"
                }
              ],
              "internalType": "struct MatcherCodec.Trade[]",
              "name": "trades",
              "type": "tuple[]"
            }
          ],
          "internalType": "struct OrderBookBuckets.QuoteResult",
          "name": "quote",
          "type": "tuple"
        }
      ],
      "stateMutability": "view",
      "type": "function"
    },
    {
      "inputs": [],
      "name": "quoteToken",
      "outputs": [
        {
          "internalType": "address",
          "name": "",
          "type": "address"
        }
      ],
      "stateMutability": "view",
      "type": "function"
    },
    {
      "inputs": [],
      "name": "renounceOwnership",
      "outputs": [],
      "stateMutability": "nonpayable",
      "type": "function"
    },
    {
      "inputs": [
        {
          "internalType": "uint128",
          "name": "minOrderQuantity_",
          "type": "uint128"
        },
        {
          "internalType": "uint128",
          "name": "minOrderNotional_",
          "type": "uint128"
        }
      ],
      "name": "setTradingConfig",
      "outputs": [],
      "stateMutability": "nonpayable",
      "type": "function"
    },
    {
      "inputs": [
        {
          "internalType": "bool",
          "name": "enabled",
          "type": "bool"
        }
      ],
      "name": "setTradingEnabled",
      "outputs": [],
      "stateMutability": "nonpayable",
      "type": "function"
    },
    {
      "inputs": [],
      "name": "tradingEnabled",
      "outputs": [
        {
          "internalType": "bool",
          "name": "",
          "type": "bool"
        }
      ],
      "stateMutability": "view",
      "type": "function"
    },
    {
      "inputs": [
        {
          "internalType": "address",
          "name": "newOwner",
          "type": "address"
        }
      ],
      "name": "transferOwnership",
      "outputs": [],
      "stateMutability": "nonpayable",
      "type": "function"
    },
    {
      "inputs": [],
      "name": "triggerMatch",
      "outputs": [],
      "stateMutability": "nonpayable",
      "type": "function"
    },
    {
      "inputs": [],
      "name": "vault",
      "outputs": [
        {
          "internalType": "contract Vault",
          "name": "",
          "type": "address"
        }
      ],
      "stateMutability": "view",
      "type": "function"
    }
  ],
  "bytecode": "0x61010060405234801561001157600080fd5b50604051613e14380380613e1483398101604081905261003091610138565b866001600160a01b03811661005f57604051631e4fbdf760e01b81526000600482015260240160405180910390fd5b610068816100b5565b506001600160a01b0395861660805293851660e05291841660a05290921660c0526001600160801b03908116600160801b0291161760019081556002805460ff19169091179055506101be565b600080546001600160a01b038381166001600160a01b0319831681178455604051919092169283917f8be0079c531659141344cd1fd0a4f28419497f9722a3daafe3b4186f6b6457e09190a35050565b80516001600160a01b038116811461011c57600080fd5b919050565b80516001600160801b038116811461011c57600080fd5b600080600080600080600060e0888a03121561015357600080fd5b61015c88610105565b965061016a60208901610105565b955061017860408901610105565b945061018660608901610105565b935061019460808901610105565b92506101a260a08901610121565b91506101b060c08901610121565b905092959891949750929550565b60805160a05160c05160e051613bd0610244600039600081816105e801528181610a66015281816110f4015261327e0152600081816102a801528181610a0f015281816110830152613237015260008181610581015281816109e90152818161105d015261320f01526000818161049d015281816107c5015261236c0152613bd06000f3fe608060405234801561001057600080fd5b50600436106101da5760003560e01c80638621896b11610104578063c309ff0c116100a2578063de67941c11610071578063de67941c146105bd578063f2fde38b146105d0578063fbfa77cf146105e3578063fe2d07e01461060a57600080fd5b8063c309ff0c1461054d578063c33f59d31461056d578063c55dae631461057c578063cffb7d15146105a357600080fd5b8063a58578fb116100de578063a58578fb14610490578063a6b3299114610498578063c11d5f06146104bf578063c2e5ec041461053a57600080fd5b80638621896b146103755780638da5cb5b1461038f578063a469dffa146103a057600080fd5b80632a58b3301161017c57806366b12eda1161014b57806366b12eda146103325780636e3beb6f14610352578063708085bb14610365578063715018a61461036d57600080fd5b80632a58b330146102e25780634ada218b146102fa578063523eb53714610317578063600cc2e61461032a57600080fd5b806318403c42116101b857806318403c421461026557806320065fe91461027b57806320c1614b14610290578063217a4b70146102a357600080fd5b8063081a2020146101df57806310f908771461020857806317fd0cdb1461023a575b600080fd5b6101f26101ed366004613655565b61067a565b6040516101ff919061371e565b60405180910390f35b60015461022290600160801b90046001600160801b031681565b6040516001600160801b0390911681526020016101ff565b61024d610248366004613655565b61097d565b6040516001600160401b0390911681526020016101ff565b61026d601481565b6040519081526020016101ff565b61028e6102893660046137b1565b610d67565b005b600554610222906001600160801b031681565b6102ca7f000000000000000000000000000000000000000000000000000000000000000081565b6040516001600160a01b0390911681526020016101ff565b60025461024d9061010090046001600160401b031681565b6002546103079060ff1681565b60405190151581526020016101ff565b61028e6103253660046137e4565b610de0565b61026d60c881565b61034561034036600461380d565b61118c565b6040516101ff9190613828565b61028e610360366004613874565b6112f6565b61028e611306565b61028e611310565b61037d600081565b60405160ff90911681526020016101ff565b6000546001600160a01b03166102ca565b6104266103ae3660046137e4565b600360208190526000918252604090912080546001820154600283015492909301546001600160401b0380831694600160401b9093046001600160a01b0316936001600160801b0380851694600160801b90819004821694828416948285041693600160c01b900460ff908116938216929091041689565b604080516001600160401b039a8b1681526001600160a01b0390991660208a01526001600160801b039788169089015294861660608801529285166080870152951660a085015260ff90941660c0840152921660e0820152901515610100820152610120016101ff565b61037d600181565b6102ca7f000000000000000000000000000000000000000000000000000000000000000081565b6105176104cd3660046138b1565b60ff9190911660009081526004602090815260408083206001600160801b0394851684529091529020600181015490546001600160401b03821693600160401b9092049092169190565b604080519384526001600160801b039092166020840152908201526060016101ff565b61028e6105483660046138cd565b611322565b61056061055b3660046138ef565b61139a565b6040516101ff9190613919565b61026d670de0b6b3a764000081565b6102ca7f000000000000000000000000000000000000000000000000000000000000000081565b60055461022290600160801b90046001600160801b031681565b600154610222906001600160801b031681565b61028e6105de3660046139bb565b6113af565b6102ca7f000000000000000000000000000000000000000000000000000000000000000081565b6106126113ed565b6040516101ff9190600060a0820190506001600160801b0383511682526001600160801b0360208401511660208301526001600160801b0360408401511660408301526001600160801b03606084015116606083015260808301511515608083015292915050565b6040805160e08101825260008082526020820181905291810182905260608082018390526080820183905260a082019290925260c08101919091526106c08484846114a4565b60006040518060c00160405280600260019054906101000a90046001600160401b031660016106ef91906139fa565b6001600160401b03168152602001866001600160801b03168152602001856001600160801b0316815260200160006001600160801b03168152602001426001600160401b031681526020018460ff168152509050606080600060ff168560ff160361077857610763600060148560016115f1565b915061077160016014611a0f565b9050610798565b61078460006014611a0f565b9150610795600160148560006115f1565b90505b815115806107a557508051155b156107b257505050610976565b60006107be8383611da3565b90506000807f00000000000000000000000000000000000000000000000000000000000000006001600160a01b0316836040516107fb9190613a19565b600060405180830381855afa9150503d8060008114610836576040519150601f19603f3d011682016040523d82523d6000602084013e61083b565b606091505b50915091508161085e57604051638072402f60e01b815260040160405180910390fd5b600061086982611fad565b805160ff168952606080820180515163ffffffff9081166020808e019190915284015181166040808e019190915284015116918b01919091525160c08a0152905060005b81606001515181101561096d57816060015181815181106108d0576108d0613a48565b602002602001015160600151896080018181516108ed9190613a5e565b6001600160801b03169052506060820151805161094891908390811061091557610915613a48565b6020026020010151604001518360600151838151811061093757610937613a48565b6020026020010151606001516121dc565b8960a0018181516109599190613a5e565b6001600160801b03169052506001016108ad565b50505050505050505b9392505050565b600061098a8484846114a4565b600280546001906109a89061010090046001600160401b0316613a7d565b91906101000a8154816001600160401b0302191690836001600160401b031602179055905060006109da858585612207565b9050600060ff841615610a0d577f0000000000000000000000000000000000000000000000000000000000000000610a2f565b7f00000000000000000000000000000000000000000000000000000000000000005b60405163364d92c360e01b81523360048201526001600160a01b0380831660248301526001600160801b03851660448301529192507f00000000000000000000000000000000000000000000000000000000000000009091169063364d92c390606401600060405180830381600087803b158015610aac57600080fd5b505af1158015610ac0573d6000803e3d6000fd5b505050506000604051806101200160405280856001600160401b03168152602001336001600160a01b03168152602001886001600160801b03168152602001876001600160801b0316815260200160006001600160801b03168152602001426001600160401b031681526020018660ff168152602001846001600160801b031681526020016001151581525090508060036000866001600160401b03166001600160401b0316815260200190815260200160002060008201518160000160006101000a8154816001600160401b0302191690836001600160401b0316021790555060208201518160000160086101000a8154816001600160a01b0302191690836001600160a01b0316021790555060408201518160010160006101000a8154816001600160801b0302191690836001600160801b0316021790555060608201518160010160106101000a8154816001600160801b0302191690836001600160801b0316021790555060808201518160020160006101000a8154816001600160801b0302191690836001600160801b0316021790555060a08201518160020160106101000a8154816001600160401b0302191690836001600160401b0316021790555060c08201518160020160186101000a81548160ff021916908360ff16021790555060e08201518160030160006101000a8154816001600160801b0302191690836001600160801b031602179055506101008201518160030160106101000a81548160ff021916908315150217905550905050610d008486898961222a565b604080516001600160801b03808a1682528816602082015260ff87169133916001600160401b038816917f7f59ced9e1094af3e03370c877a3c2cfcfd77e054426e6c1adb87bd1412ecc35910160405180910390a4610d5d612321565b5050509392505050565b610d6f6125f1565b6001600160801b03828116600160801b83831681028281176001819055600254604080519387169095178352929004909316602084015260ff161515908201527f2903bb137082ed3543a239c5468795317d74fd63d7eff9c5b07cbdf0e3af7a449060600160405180910390a15050565b6001600160401b03811660009081526003602052604090208054600160401b90046001600160a01b03163314610e3f5760405163e339615d60e01b81526001600160401b03831660048201523360248201526044015b60405180910390fd5b6003810154600160801b900460ff16610e76576040516375f7f01160e01b81526001600160401b0383166004820152602401610e36565b60038101805460ff60801b1916905560028101546001820154600091610eb0916001600160801b0391821691600160801b90910416613aa8565b90506001600160801b03811615611024576002820154600160c01b900460ff1660009081526004602090815260408083206001808701546001600160801b039081168652919093529220908101805491928492600891610f1a918591600160401b90910416613aa8565b92506101000a8154816001600160801b0302191690836001600160801b031602179055508060010160089054906101000a90046001600160801b03166001600160801b0316600003610f8d5760028301546001840154610f8d91600160c01b900460ff16906001600160801b031661261e565b805460018201546001600160401b0316108015610ff45750600181015481546001600160401b038087169284929116908110610fcb57610fcb613a48565b6000918252602090912060048204015460039091166008026101000a90046001600160401b0316145b15611022576002830154600184015461102291600160c01b900460ff16906001600160801b031660c8612775565b505b6003820180546001600160801b0319811690915560028301546001600160801b0390911690600090600160c01b900460ff1615611081577f00000000000000000000000000000000000000000000000000000000000000006110a3565b7f00000000000000000000000000000000000000000000000000000000000000005b90506001600160801b0382161561115157835460405163623fb99b60e01b8152600160401b9091046001600160a01b03908116600483015282811660248301526001600160801b03841660448301527f0000000000000000000000000000000000000000000000000000000000000000169063623fb99b90606401600060405180830381600087803b15801561113857600080fd5b505af115801561114c573d6000803e3d6000fd5b505050505b6040516001600160401b038616907f413c1ea791e99e4774c2bdb5634eb463180b94450f02a3712b75fd6f638f38ab90600090a25050505050565b606060008060ff8416156111b257600554600160801b90046001600160801b03166111bf565b6005546001600160801b03165b90505b6001600160801b0381161561121357816111db81613ac7565b60ff861660009081526004602090815260408083206001600160801b03968716845290915290206002015490935090911690506111c2565b816001600160401b0381111561122b5761122b613ae0565b604051908082528060200260200182016040528015611254578160200160208202803683370190505b50925060ff84161561127857600554600160801b90046001600160801b0316611285565b6005546001600160801b03165b905060005b828110156112ee57818482815181106112a5576112a5613a48565b6001600160801b0392831660209182029290920181019190915260ff8716600090815260048252604080822095841682529490915292909220600201549091169060010161128a565b505050919050565b611301838383612775565b505050565b61130e612321565b565b6113186125f1565b61130e6000612898565b61132a6125f1565b6002805482151560ff199091168117909155600154604080516001600160801b038084168252600160801b909304909216602083015260ff90921615158183015290517f2903bb137082ed3543a239c5468795317d74fd63d7eff9c5b07cbdf0e3af7a449181900360600190a150565b60606113a68383611a0f565b90505b92915050565b6113b76125f1565b6001600160a01b0381166113e157604051631e4fbdf760e01b815260006004820152602401610e36565b6113ea81612898565b50565b6040805160a08101825260008082526020820181905291810182905260608101829052608081019190915261142260006128e8565b6001600160801b03908116602084015216815261143f60016128e8565b6001600160801b039081166060840152908116604083015281511615801590611474575060408101516001600160801b031615155b801561149a575080604001516001600160801b031681600001516001600160801b031610155b1515608082015290565b60025460ff166114c75760405163bcb8b8fb60e01b815260040160405180910390fd5b600160ff821611156114f157604051637006e89560e01b815260ff82166004820152602401610e36565b6001600160801b038316158061150e57506001600160801b038216155b1561153f57604051635c3c467f60e11b81526001600160801b03808516600483015283166024820152604401610e36565b6001546001600160801b03908116908316101561158657600154604051630fb2941360e11b81526001600160801b0380851660048301529091166024820152604401610e36565b600061159284846121dc565b6001549091506001600160801b03600160801b909104811690821610156115eb576001546040516316398ed360e11b81526001600160801b038381166004830152600160801b9092049091166024820152604401610e36565b50505050565b60606000846001600160401b0381111561160d5761160d613ae0565b60405190808252806020026020018201604052801561164657816020015b6116336135f8565b81526020019060019003908161162b5790505b50905060008060ff88161561166d57600554600160801b90046001600160801b031661167a565b6005546001600160801b03165b905060005b6001600160801b0382161580159061169657508783105b1561192d5760ff891660009081526004602090815260408083206001600160801b0380871685529252822060018101549092600160401b90910490911690036116ed57600201546001600160801b0316915061167f565b8054600182015460009081906001600160401b03165b838110801561171157508c88105b156118c25760006003600087600001848154811061173157611731613a48565b6000918252602080832060048304015460039283166008026101000a90046001600160401b031684528301939093526040909101902090810154909150600160801b900460ff1615806117a05750600181015460028201546001600160801b03600160801b9092048216911610155b156117dc5760c884036117cf578e888560c8604051630b9076c760e01b8152600401610e369493929190613af6565b5060019283019201611703565b6040805160c08101825282546001600160401b0390811682526001808501546001600160801b038082166020860152600160801b918290048116958501959095526002860154948516606085015284049091166080830152600160c01b90920460ff1660a08201529093508715801561185b575061185b8e828f612964565b15611896578d8b8b8151811061187357611873613a48565b6020026020010181905250600197508960010199508e8a036118965750506118c2565b808b8b815181106118a9576118a9613a48565b6020908102919091010152505060019788019701611703565b50801580156118d057508b87105b80156118ef57506001840154600160401b90046001600160801b031615155b15611916578c868360c8604051630b9076c760e01b8152600401610e369493929190613af6565b505050600201546001600160801b0316915061167f565b8015801561193a57508783105b15611964578684848151811061195257611952613a48565b60200260200101819052508260010192505b826001600160401b0381111561197c5761197c613ae0565b6040519080825280602002602001820160405280156119b557816020015b6119a26135f8565b81526020019060019003908161199a5790505b50945060005b83811015611a02578481815181106119d5576119d5613a48565b60200260200101518682815181106119ef576119ef613a48565b60209081029190910101526001016119bb565b5050505050949350505050565b60606000826001600160401b03811115611a2b57611a2b613ae0565b604051908082528060200260200182016040528015611a6457816020015b611a516135f8565b815260200190600190039081611a495790505b50905060008060ff861615611a8b57600554600160801b90046001600160801b0316611a98565b6005546001600160801b03165b90505b6001600160801b03811615801590611ab257508482105b15611cfb5760ff861660009081526004602090815260408083206001600160801b0380861685529252822060018101549092600160401b9091049091169003611b0957600201546001600160801b03169050611a9b565b8054600182015460009081906001600160401b03165b8381108015611b2d57508987105b15611c9057600060036000876000018481548110611b4d57611b4d613a48565b6000918252602080832060048304015460039283166008026101000a90046001600160401b031684528301939093526040909101902090810154909150600160801b900460ff161580611bbc5750600181015460028201546001600160801b03600160801b9092048216911610155b15611bf85760c88403611beb578b878560c8604051630b9076c760e01b8152600401610e369493929190613af6565b5060019283019201611b1f565b6040805160c08101825282546001600160401b0390811682526001808501546001600160801b038082166020860152600160801b918290048116958501959095526002860154948516606085015284049091166080830152600160c01b90920460ff1660a08201528a51919450908a908a908110611c7857611c78613a48565b60209081029190910101525060019687019601611b1f565b5080158015611c9e57508886105b8015611cbd57506001840154600160401b90046001600160801b031615155b15611ce45789858360c8604051630b9076c760e01b8152600401610e369493929190613af6565b505050600201546001600160801b03169050611a9b565b816001600160401b03811115611d1357611d13613ae0565b604051908082528060200260200182016040528015611d4c57816020015b611d396135f8565b815260200190600190039081611d315790505b50935060005b82811015611d9957838181518110611d6c57611d6c613a48565b6020026020010151858281518110611d8657611d86613a48565b6020908102919091010152600101611d52565b5050505092915050565b606063ffffffff801683511180611dbe5750815163ffffffff105b15611ddc576040516307dfab8560e01b815260040160405180910390fd5b604182518451611dec9190613b1f565b611df69190613b32565b611e0190600c613b1f565b6001600160401b03811115611e1857611e18613ae0565b6040519080825280601f01601f191660200182016040528015611e42576020820181803683370190505b509050611e528160048551612a56565b611e5f8160088451612a56565b805160d560f81b908290600090611e7857611e78613a48565b60200101906001600160f81b031916908160001a9053508051601560f91b9082906001908110611eaa57611eaa613a48565b60200101906001600160f81b031916908160001a9053508051601160f81b9082906002908110611edc57611edc613a48565b60200101906001600160f81b031916908160001a9053508051604760f91b9082906003908110611f0e57611f0e613a48565b60200101906001600160f81b031916908160001a905350600c60005b8451811015611f6c57611f578383878481518110611f4a57611f4a613a48565b6020026020010151612a69565b611f62604183613b1f565b9150600101611f2a565b5060005b8351811015611fa557611f908383868481518110611f4a57611f4a613a48565b611f9b604183613b1f565b9150600101611f70565b505092915050565b6040805160808101825260008082526020820181905291810191909152606080820152600d82511015611ff8578151604051633b5ab4b960e11b8152600401610e3691815260200190565b8160008151811061200b5761200b613a48565b016020015160f81c81526000612022836001612b53565b63ffffffff169050612035836005612b53565b63ffffffff16602083015261204b836009612b53565b63ffffffff1660408301526000612063603083613b32565b61206e90600d613b1f565b905080845114612096578351604051633b5ab4b960e11b8152600401610e3691815260200190565b816001600160401b038111156120ae576120ae613ae0565b60405190808252806020026020018201604052801561210057816020015b6040805160808101825260008082526020808301829052928201819052606082015282526000199092019101816120cc5790505b506060840152600d60005b838110156121d357604051806080016040528061212a88856008612b5d565b6001600160401b0316815260200161214e88612147866008613b1f565b6008612b5d565b6001600160401b031681526020016121728861216b866010613b1f565b6010612b5d565b6001600160801b031681526020016121918885602061216b9190613b1f565b6001600160801b0316815250856060015182815181106121b3576121b3613a48565b60209081029190910101526121c9603083613b1f565b915060010161210b565b50505050919050565b6000670de0b6b3a76400006121fd6001600160801b03808516908616613b32565b6113a69190613b49565b600060ff82166122225761221b84846121dc565b9050610976565b509092915050565b60ff831660009081526004602090815260408083206001600160801b0380871685529252822060018101549092600160401b909104909116900361229657805460018201805467ffffffffffffffff19166001600160401b039092169190911790556122968484612ba8565b805460018181018355600083815260209020600483040180546001600160401b03808a166008600390961686026101000a908102910219909116179055820180548492906122f69084906001600160801b03600160401b90910416613a5e565b92506101000a8154816001600160801b0302191690836001600160801b031602179055505050505050565b600061232f60006014611a0f565b9050600061233f60016014611a0f565b905081516000148061235057508051155b15612359575050565b60006123658383611da3565b90506000807f00000000000000000000000000000000000000000000000000000000000000006001600160a01b0316836040516123a29190613a19565b6000604051808303816000865af19150503d80600081146123df576040519150601f19603f3d011682016040523d82523d6000602084013e6123e4565b606091505b50915091508161240757604051638072402f60e01b815260040160405180910390fd5b600061241282611fad565b805190915060ff1615612440578051604051631f90741360e31b815260ff9091166004820152602401610e36565b8551816020015163ffffffff16111561248a576020810151865160405163034a417b60e21b81526000600482015263ffffffff928316602482015291166044820152606401610e36565b8451816040015163ffffffff1611156124d4576040808201518651915163034a417b60e21b81526001600482015263ffffffff918216602482015291166044820152606401610e36565b60005b8160600151518110156125125761250a826060015182815181106124fd576124fd613a48565b6020026020010151612de9565b6001016124d7565b5061252360008783602001516133bc565b61253360018683604001516133bc565b600061253e876134d6565b9050600061254b876134d6565b9050826020015163ffffffff168263ffffffff161461259a57602083015160405163034a417b60e21b81526000600482015263ffffffff91821660248201529083166044820152606401610e36565b826040015163ffffffff168163ffffffff16146125e757604080840151905163034a417b60e21b81526001600482015263ffffffff91821660248201529082166044820152606401610e36565b5050505050505050565b6000546001600160a01b0316331461130e5760405163118cdaa760e01b8152336004820152602401610e36565b60ff821660009081526004602090815260408083206001600160801b0380861685529252822060028101549092600160801b820483169291909116908290036126da5760ff851661269f576005546001600160801b0380861691160361269a57600580546001600160801b0319166001600160801b0383161790555b61271a565b6005546001600160801b03808616600160801b909204160361269a57600580546001600160801b03808416600160801b02911617905561271a565b60ff851660009081526004602090815260408083206001600160801b038681168552925290912060020180546001600160801b0319169183169190911790555b6001600160801b038116156127675760ff851660009081526004602090815260408083206001600160801b03808616855292529091206002018054828516600160801b0292169190911790555b505060006002909101555050565b60ff831660009081526004602090815260408083206001600160801b03861684529091528120805490915b60018301546001600160401b0316821180156127bb57508381105b156128905760018301548354600091600391839187916001600160401b039091169081106127eb576127eb613a48565b6000918252602080832060048304015460039283166008026101000a90046001600160401b031684528301939093526040909101902090810154909150600160801b900460ff1680156128595750600181015460028201546001600160801b03600160801b90920482169116105b156128645750612890565b50600180840180546001600160401b0380821684011667ffffffffffffffff19909116179055016127a0565b505050505050565b600080546001600160a01b038381166001600160a01b0319831681178455604051919092169283917f8be0079c531659141344cd1fd0a4f28419497f9722a3daafe3b4186f6b6457e09190a35050565b60008060ff83161561290c57600554600160801b90046001600160801b0316612919565b6005546001600160801b03165b91506001600160801b0382161561295f575060ff821660009081526004602090815260408083206001600160801b038086168552925290912060010154600160401b9004165b915091565b600081156129b65782602001516001600160801b031684602001516001600160801b0316146129b15782602001516001600160801b031684602001516001600160801b0316119050610976565b6129fb565b82602001516001600160801b031684602001516001600160801b0316146129fb5782602001516001600160801b031684602001516001600160801b0316109050610976565b82608001516001600160401b031684608001516001600160401b031614612a405782608001516001600160401b031684608001516001600160401b0316109050610976565b50505190516001600160401b0391821691161090565b61130183838363ffffffff166004613590565b612a83838383600001516001600160401b03166008613590565b612aa783612a92846008613b1f565b83602001516001600160801b03166010613590565b612acb83612ab6846018613b1f565b83604001516001600160801b03166010613590565b612aef83612ada846028613b1f565b83606001516001600160801b03166010613590565b612b1383612afe846038613b1f565b83608001516001600160401b03166008613590565b60a081015160f81b83612b27846040613b1f565b81518110612b3757612b37613a48565b60200101906001600160f81b031916908160001a905350505050565b60006113a6838360045b6000805b82811015612ba05784612b748286613b1f565b81518110612b8457612b84613a48565b60209101015160f81c60089290921b9190911790600101612b61565b509392505050565b600060ff831615612bcb57600554600160801b90046001600160801b0316612bd8565b6005546001600160801b03165b9050806001600160801b0316600003612c345760ff8316612c1557600580546001600160801b0384166001600160801b0319909116179055505050565b600580546001600160801b03808516600160801b029116179055505050565b60005b6001600160801b03821615612cc257600060ff851615612c6b57836001600160801b0316836001600160801b031610612c81565b836001600160801b0316836001600160801b0316115b905080612c8e5750612cc2565b505060ff831660009081526004602090815260408083206001600160801b0380861685529252909120600201541690612c37565b60ff841660009081526004602090815260408083206001600160801b03808816855292528220848216918416600160801b81026001600160801b0319169290921760028201559103612d555760ff8516612d3657600580546001600160801b0319166001600160801b038616179055612d95565b600580546001600160801b03808716600160801b029116179055612d95565b60ff851660009081526004602090815260408083206001600160801b038681168552925290912060020180546001600160801b0319169186169190911790555b6001600160801b03831615612de25760ff851660009081526004602090815260408083206001600160801b03808816855292529091206002018054828716600160801b0292169190911790555b5050505050565b80516001600160401b0390811660009081526003602081815260408084209186015190941683529290912090820154600160801b900460ff161580612e3a57506003810154600160801b900460ff16155b15612e725782516020840151604051632640920560e11b81526001600160401b03928316600482015291166024820152604401610e36565b6000670de0b6b3a764000084606001516001600160801b031685604001516001600160801b0316612ea39190613b32565b612ead9190613b49565b60608501516001850154919250600091670de0b6b3a764000091612edd916001600160801b039182169116613b32565b612ee79190613b49565b60608601516002860180549293509091600090612f0e9084906001600160801b0316613a5e565b92506101000a8154816001600160801b0302191690836001600160801b0316021790555084606001518360020160008282829054906101000a90046001600160801b0316612f5c9190613a5e565b92506101000a8154816001600160801b0302191690836001600160801b03160217905550808460030160008282829054906101000a90046001600160801b0316612fa69190613aa8565b92506101000a8154816001600160801b0302191690836001600160801b0316021790555084606001518360030160008282829054906101000a90046001600160801b0316612ff49190613aa8565b82546101009290920a6001600160801b038181021990931691831602179091556060870151600187810154831660009081527f17ef568e3e12ab5b9c7254a8d58478811de00f9e6eb34345acd53bf8fd09d3ec602052604090200180549193509160089161306b918591600160401b900416613aa8565b82546101009290920a6001600160801b03818102199093169183160217909155600186810154821660009081527f17ef568e3e12ab5b9c7254a8d58478811de00f9e6eb34345acd53bf8fd09d3ec6020526040812090910154600160401b9004909116900390506130f05760018401546130f0906000906001600160801b031661261e565b60608501516001848101546001600160801b0390811660009081527fabd6e7cb50984ff9c2f3e18a2660c3353dadf4e3291deeb275dae2cd1e44fe056020526040902090910180549091600891613150918591600160401b900416613aa8565b82546101009290920a6001600160801b03818102199093169183160217909155600185810154821660009081527fabd6e7cb50984ff9c2f3e18a2660c3353dadf4e3291deeb275dae2cd1e44fe056020526040812090910154600160401b9004909116900390506131d4576001838101546131d491906001600160801b031661261e565b835483546060870151604051631b7928e360e21b81526001600160a01b03600160401b948590048116600483015293909204831660248301527f0000000000000000000000000000000000000000000000000000000000000000831660448301527f0000000000000000000000000000000000000000000000000000000000000000831660648301526001600160801b03908116608483015284811660a4830152831660c48201527f000000000000000000000000000000000000000000000000000000000000000090911690636de4a38c9060e401600060405180830381600087803b1580156132c457600080fd5b505af11580156132d8573d6000803e3d6000fd5b505050600185015460028601546001600160801b03600160801b909204821691160390506133105760038401805460ff60801b191690555b600183015460028401546001600160801b03600160801b90920482169116036133435760038301805460ff60801b191690555b84602001516001600160401b031685600001516001600160401b03167fbc2a68c10d5d78cbe554ea0d32f0366572a92a2f3358662dcb4c2eb761b40d84876040015188606001516040516133ad9291906001600160801b0392831681529116602082015260400190565b60405180910390a35050505050565b60005b8163ffffffff168110156115eb5760008382815181106133e1576133e1613a48565b60209081029190910181015160ff87166000908152600483526040808220838501516001600160801b03168352909352919091208054919250905b60018201546001600160401b03168111156134b8576001820154825460009184916001600160401b0390911690811061345757613457613a48565b600091825260209091206004820401546001858101805467ffffffffffffffff1981166001600160401b039182169093018116929092179055865160039093166008026101000a909104811692501681036134b257506134b8565b5061341c565b6134c887846020015160c8612775565b8360010193505050506133bf565b60005b81518163ffffffff16101561358b57600060036000848463ffffffff168151811061350657613506613a48565b6020026020010151600001516001600160401b03166001600160401b0316815260200190815260200160002090508060030160109054906101000a900460ff16801561356d5750600181015460028201546001600160801b03600160801b90920482169116105b156135785750919050565b8161358281613b6b565b925050506134d9565b919050565b60005b81811015612de25760f883901b858260016135ae8689613b1f565b6135b89190613b87565b6135c29190613b87565b815181106135d2576135d2613a48565b60200101906001600160f81b031916908160001a90535060089290921c91600101613593565b6040805160c081018252600080825260208201819052918101829052606081018290526080810182905260a081019190915290565b80356001600160801b038116811461358b57600080fd5b803560ff8116811461358b57600080fd5b60008060006060848603121561366a57600080fd5b6136738461362d565b92506136816020850161362d565b915061368f60408501613644565b90509250925092565b600081518084526020840193506020830160005b828110156137145781516001600160401b0381511687526001600160401b0360208201511660208801526001600160801b0360408201511660408801526001600160801b036060820151166060880152506080860195506020820191506001810190506136ac565b5093949350505050565b6020815260ff825116602082015263ffffffff602083015116604082015263ffffffff604083015116606082015260006060830151613765608084018263ffffffff169052565b5060808301516001600160801b03811660a08401525060a08301516001600160801b03811660c08401525060c083015160e0808401526137a9610100840182613698565b949350505050565b600080604083850312156137c457600080fd5b6137cd8361362d565b91506137db6020840161362d565b90509250929050565b6000602082840312156137f657600080fd5b81356001600160401b038116811461097657600080fd5b60006020828403121561381f57600080fd5b6113a682613644565b602080825282518282018190526000918401906040840190835b818110156138695783516001600160801b0316835260209384019390920191600101613842565b509095945050505050565b60008060006060848603121561388957600080fd5b61389284613644565b92506138a06020850161362d565b929592945050506040919091013590565b600080604083850312156138c457600080fd5b6137cd83613644565b6000602082840312156138df57600080fd5b8135801515811461097657600080fd5b6000806040838503121561390257600080fd5b61390b83613644565b946020939093013593505050565b602080825282518282018190526000918401906040840190835b818110156138695783516001600160401b0381511684526001600160801b0360208201511660208501526001600160801b0360408201511660408501526001600160801b0360608201511660608501526001600160401b03608082015116608085015260ff60a08201511660a08501525060c083019250602084019350600181019050613933565b6000602082840312156139cd57600080fd5b81356001600160a01b038116811461097657600080fd5b634e487b7160e01b600052601160045260246000fd5b6001600160401b0381811683821601908111156113a9576113a96139e4565b6000825160005b81811015613a3a5760208186018101518583015201613a20565b506000920191825250919050565b634e487b7160e01b600052603260045260246000fd5b6001600160801b0381811683821601908111156113a9576113a96139e4565b60006001600160401b0382166001600160401b038103613a9f57613a9f6139e4565b60010192915050565b6001600160801b0382811682821603908111156113a9576113a96139e4565b600060018201613ad957613ad96139e4565b5060010190565b634e487b7160e01b600052604160045260246000fd5b60ff9490941684526001600160801b039290921660208401526040830152606082015260800190565b808201808211156113a9576113a96139e4565b80820281158282048414176113a9576113a96139e4565b600082613b6657634e487b7160e01b600052601260045260246000fd5b500490565b600063ffffffff821663ffffffff8103613a9f57613a9f6139e4565b818103818111156113a9576113a96139e456fea2646970667358221220690d121643d6b068e197d809fe66931e15bcfd35268d35c9b07860a04ac7031864736f6c634300081c0033",
  "linkReferences": {},
  "deployedLinkReferences": {}
}