{
  "_format": "hh-sol-artifact-1",
  "contractName": "Vault",
  "sourceName": "contracts/Vault.sol",
  "abi": [
    {
      "inputs": [
        {
          "internalType": "address",
          "name": "initialOwner",
          "type": "address"
        }
      ],
      "stateMutability": "nonpayable",
      "type": "constructor"
    },
    {
      "inputs": [
        {
          "internalType": "address",
          "name": "user",
          "type": "address"
        },
        {
          "internalType": "address",
          "name": "token",
          "type": "address"
        },
        {
          "internalType": "uint256",
          "name": "requested",
          "type": "uint256"
        },
        {
          "internalType": "uint256",
          "name": "available",
          "type": "uint256"
        }
      ],
      "name": "InsufficientAvailableBalance",
      "type": "error"
    },
    {
      "inputs": [
        {
          "internalType": "address",
          "name": "owner",
          "type": "address"
        }
      ],
      "name": "OwnableInvalidOwner",
      "type": "error"
    },
    {
      "inputs": [
        {
          "internalType": "address",
          "name": "account",
          "type": "address"
        }
      ],
      "name": "OwnableUnauthorizedAccount",
      "type": "error"
    },
    {
      "inputs": [
        {
          "internalType": "address",
          "name": "registry",
          "type": "address"
        },
        {
          "internalType": "address",
          "name": "orderBook",
          "type": "address"
        }
      ],
      "name": "RegistryCannotAuthorizeOrderBook",
      "type": "error"
    },
    {
      "inputs": [
        {
          "internalType": "address",
          "name": "token",
          "type": "address"
        }
      ],
      "name": "SafeERC20FailedOperation",
      "type": "error"
    },
    {
      "inputs": [
        {
          "internalType": "address",
          "name": "caller",
          "type": "address"
        }
      ],
      "name": "UnauthorizedOrderBook",
      "type": "error"
    },
    {
      "anonymous": false,
      "inputs": [
        {
          "indexed": true,
          "internalType": "address",
          "name": "user",
          "type": "address"
        },
        {
          "indexed": true,
          "internalType": "address",
          "name": "token",
          "type": "address"
        },
        {
          "indexed": false,
          "internalType": "uint256",
          "name": "amount",
          "type": "uint256"
        }
      ],
      "name": "Deposit",
      "type": "event"
    },
    {
      "anonymous": false,
      "inputs": [
        {
          "indexed": true,
          "internalType": "address",
          "name": "orderBook",
          "type": "address"
        },
        {
          "indexed": false,
          "internalType": "bool",
          "name": "allowed",
          "type": "bool"
        }
      ],
      "name": "OrderBookAuthorizationUpdated",
      "type": "event"
    },
    {
      "anonymous": false,
      "inputs": [
        {
          "indexed": true,
          "internalType": "address",
          "name": "previousOwner",
          "type": "address"
        },
        {
          "indexed": true,
          "internalType": "address",
          "name": "newOwner",
          "type": "address"
        }
      ],
      "name": "OwnershipTransferred",
      "type": "event"
    },
    {
      "anonymous": false,
      "inputs": [
        {
          "indexed": true,
          "internalType": "address",
          "name": "registry",
          "type": "address"
        },
        {
          "indexed": false,
          "internalType": "bool",
          "name": "allowed",
          "type": "bool"
        }
      ],
      "name": "RegistryAuthorizationUpdated",
      "type": "event"
    },
    {
      "anonymous": false,
      "inputs": [
        {
          "indexed": true,
          "internalType": "address",
          "name": "user",
          "type": "address"
        },
        {
          "indexed": true,
          "internalType": "address",
          "name": "token",
          "type": "address"
        },
        {
          "indexed": false,
          "internalType": "uint256",
          "name": "amount",
          "type": "uint256"
        }
      ],
      "name": "Withdrawal",
      "type": "event"
    },
    {
      "inputs": [
        {
          "internalType": "address",
          "name": "orderBook",
          "type": "address"
        }
      ],
      "name": "authorizedOrderBooks",
      "outputs": [
        {
          "internalType": "bool",
          "name": "allowed",
          "type": "bool"
        }
      ],
      "stateMutability": "view",
      "type": "function"
    },
    {
      "inputs": [
        {
          "internalType": "address",
          "name": "registry",
          "type": "address"
        }
      ],
      "name": "authorizedRegistries",
      "outputs": [
        {
          "internalType": "bool",
          "name": "allowed",
          "type": "bool"
        }
      ],
      "stateMutability": "view",
      "type": "function"
    },
    {
      "inputs": [
        {
          "internalType": "address",
          "name": "user",
          "type": "address"
        },
        {
          "internalType": "address",
          "name": "token",
          "type": "address"
        }
      ],
      "name": "balances",
      "outputs": [
        {
          "internalType": "uint256",
          "name": "amount",
          "type": "uint256"
        }
      ],
      "stateMutability": "view",
      "type": "function"
    },
    {
      "inputs": [
        {
          "internalType": "address",
          "name": "token",
          "type": "address"
        },
        {
          "internalType": "uint256",
          "name": "amount",
          "type": "uint256"
        }
      ],
      "name": "deposit",
      "outputs": [],
      "stateMutability": "nonpayable",
      "type": "function"
    },
    {
      "inputs": [
        {
          "internalType": "address",
          "name": "user",
          "type": "address"
        },
        {
          "internalType": "address",
          "name": "token",
          "type": "address"
        },
        {
          "internalType": "uint256",
          "name": "amount",
          "type": "uint256"
        }
      ],
      "name": "lockForOrder",
      "outputs": [],
      "stateMutability": "nonpayable",
      "type": "function"
    },
    {
      "inputs": [
        {
          "internalType": "address",
          "name": "user",
          "type": "address"
        },
        {
          "internalType": "address",
          "name": "token",
          "type": "address"
        }
      ],
      "name": "locked",
      "outputs": [
        {
          "internalType": "uint256",
          "name": "amount",
          "type": "uint256"
        }
      ],
      "stateMutability": "view",
      "type": "function"
    },
    {
      "inputs": [
        {
          "internalType": "address",
          "name": "orderBook",
          "type": "address"
        }
      ],
      "name": "orderBookRegistries",
      "outputs": [
        {
          "internalType": "address",
          "name": "registry",
          "type": "address"
        }
      ],
      "stateMutability": "view",
      "type": "function"
    },
    {
      "inputs": [],
      "name": "owner",
      "outputs": [
        {
          "internalType": "address",
          "name": "",
          "type": "address"
        }
      ],
      "stateMutability": "view",
      "type": "function"
    },
    {
      "inputs": [],
      "name": "renounceOwnership",
      "outputs": [],
      "stateMutability": "nonpayable",
      "type": "function"
    },
    {
      "inputs": [
        {
          "internalType": "address",
          "name": "orderBook",
          "type": "address"
        },
        {
          "internalType": "bool",
          "name": "allowed",
          "type": "bool"
        }
      ],
      "name": "setOrderBookAuthorization",
      "outputs": [],
      "stateMutability": "nonpayable",
      "type": "function"
    },
    {
      "inputs": [
        {
          "internalType": "address",
          "name": "registry",
          "type": "address"
        },
        {
          "internalType": "bool",
          "name": "allowed",
          "type": "bool"
        }
      ],
      "name": "setRegistryAuthorization",
      "outputs": [],
      "stateMutability": "nonpayable",
      "type": "function"
    },
    {
      "inputs": [
        {
          "internalType": "address",
          "name": "buyer",
          "type": "address"
        },
        {
          "internalType": "address",
          "name": "seller",
          "type": "address"
        },
        {
          "internalType": "address",
          "name": "baseToken",
          "type": "address"
        },
        {
          "internalType": "address",
          "name": "quoteToken",
          "type": "address"
        },
        {
          "internalType": "uint256",
          "name": "baseQty",
          "type": "uint256"
        },
        {
          "internalType": "uint256",
          "name": "quoteQty",
          "type": "uint256"
        },
        {
          "internalType": "uint256",
          "name": "quoteReserveReduction",
          "type": "uint256"
        }
      ],
      "name": "settleTrade",
      "outputs": [],
      "stateMutability": "nonpayable",
      "type": "function"
    },
    {
      "inputs": [
        {
          "internalType": "address",
          "name": "newOwner",
          "type": "address"
        }
      ],
      "name": "transferOwnership",
      "outputs": [],
      "stateMutability": "nonpayable",
      "type": "function"
    },
    {
      "inputs": [
        {
          "internalType": "address",
          "name": "user",
          "type": "address"
        },
        {
          "internalType": "address",
          "name": "token",
          "type": "address"
        },
        {
          "internalType": "uint256",
          "name": "amount",
          "type": "uint256"
        }
      ],
      "name": "unlockForOrder",
      "outputs": [],
      "stateMutability": "nonpayable",
      "type": "function"
    },
    {
      "inputs": [
        {
          "internalType": "address",
          "name": "token",
          "type": "address"
        },
        {
          "internalType": "uint256",
          "name": "amount",
          "type": "uint256"
        }
      ],
      "name": "withdraw",
      "outputs": [],
      "stateMutability": "nonpayable",
      "type": "function"
    }
  ],
  "bytecode": "0x608060405234801561001057600080fd5b5060405161106e38038061106e83398101604081905261002f916100be565b806001600160a01b03811661005e57604051631e4fbdf760e01b81526000600482015260240160405180910390fd5b6100678161006e565b50506100ee565b600080546001600160a01b038381166001600160a01b0319831681178455604051919092169283917f8be0079c531659141344cd1fd0a4f28419497f9722a3daafe3b4186f6b6457e09190a35050565b6000602082840312156100d057600080fd5b81516001600160a01b03811681146100e757600080fd5b9392505050565b610f71806100fd6000396000f3fe608060405234801561001057600080fd5b50600436106100f55760003560e01c8063c23f001f11610097578063f2fde38b11610066578063f2fde38b14610251578063f3fef3a314610264578063f52fef7c14610277578063fadd62751461029a57600080fd5b8063c23f001f146101a7578063c24d7046146101e0578063db20266f14610213578063e631bd871461023e57600080fd5b8063623fb99b116100d3578063623fb99b146101685780636de4a38c1461017b578063715018a61461018e5780638da5cb5b1461019657600080fd5b8063364d92c3146100fa57806342f8c5f01461010f57806347e7ef2414610155575b600080fd5b61010d610108366004610d4f565b6102ad565b005b61013861011d366004610d90565b6005602052600090815260409020546001600160a01b031681565b6040516001600160a01b0390911681526020015b60405180910390f35b61010d610163366004610db4565b6103b1565b61010d610176366004610d4f565b610530565b61010d610189366004610de0565b6105a3565b61010d610746565b6000546001600160a01b0316610138565b6101d26101b5366004610e57565b600160209081526000928352604080842090915290825290205481565b60405190815260200161014c565b6102036101ee366004610d90565b60036020526000908152604090205460ff1681565b604051901515815260200161014c565b6101d2610221366004610e57565b600260209081526000928352604080842090915290825290205481565b61010d61024c366004610e90565b61075a565b61010d61025f366004610d90565b6107c2565b61010d610272366004610db4565b610800565b610203610285366004610d90565b60046020526000908152604090205460ff1681565b61010d6102a8366004610e90565b610918565b3360009081526003602052604090205460ff166102e4576040516389211f8360e01b81523360048201526024015b60405180910390fd5b6001600160a01b03808416600081815260026020908152604080832094871680845294825280832054938352600182528083209483529390529182205461032b9190610ed9565b90508181101561036f57604051632606b86d60e01b81526001600160a01b0380861660048301528416602482015260448101839052606481018290526084016102db565b6001600160a01b038085166000908152600260209081526040808320938716835292905290812080548492906103a6908490610ef2565b909155505050505050565b6040516370a0823160e01b81523060048201526000906001600160a01b038416906370a0823190602401602060405180830381865afa1580156103f8573d6000803e3d6000fd5b505050506040513d601f19601f8201168201806040525081019061041c9190610f05565b90506104336001600160a01b038416333085610b6f565b6040516370a0823160e01b81523060048201526000906001600160a01b038516906370a0823190602401602060405180830381865afa15801561047a573d6000803e3d6000fd5b505050506040513d601f19601f8201168201806040525081019061049e9190610f05565b905060006104ac8383610ed9565b3360009081526001602090815260408083206001600160a01b038a1684529091528120805492935083929091906104e4908490610ef2565b90915550506040518181526001600160a01b0386169033907f5548c837ab068cf56a2c2479df0882a4922fd203edb7517321831d95078c5f629060200160405180910390a35050505050565b3360009081526003602052604090205460ff16610562576040516389211f8360e01b81523360048201526024016102db565b6001600160a01b03808416600090815260026020908152604080832093861683529290529081208054839290610599908490610ed9565b9091555050505050565b3360009081526003602052604090205460ff166105d5576040516389211f8360e01b81523360048201526024016102db565b6001600160a01b0380871660009081526002602090815260408083209389168352929052908120805485929061060c908490610ed9565b90915550506001600160a01b03808716600090815260016020908152604080832093891683529290529081208054859290610648908490610ed9565b90915550506001600160a01b03808816600090815260016020908152604080832093891683529290529081208054859290610684908490610ef2565b90915550506001600160a01b038088166000908152600260209081526040808320938816835292905290812080548392906106c0908490610ed9565b90915550506001600160a01b038088166000908152600160209081526040808320938816835292905290812080548492906106fc908490610ed9565b90915550506001600160a01b03808716600090815260016020908152604080832093881683529290529081208054849290610738908490610ef2565b909155505050505050505050565b61074e610bab565b6107586000610bd8565b565b610762610bab565b6001600160a01b038216600081815260046020908152604091829020805460ff191685151590811790915591519182527faa891bc397911fef21b437389d9b04358507c5cff991e0a96b7cccec5571c90291015b60405180910390a25050565b6107ca610bab565b6001600160a01b0381166107f457604051631e4fbdf760e01b8152600060048201526024016102db565b6107fd81610bd8565b50565b3360008181526002602090815260408083206001600160a01b0387168085529083528184205494845260018352818420908452909152812054909161084491610ed9565b90508181101561088657604051632606b86d60e01b81523360048201526001600160a01b038416602482015260448101839052606481018290526084016102db565b3360009081526001602090815260408083206001600160a01b0387168452909152812080548492906108b9908490610ed9565b909155506108d390506001600160a01b0384163384610c28565b6040518281526001600160a01b0384169033907f2717ead6b9200dd235aad468c9809ea400fe33ac69b5bfaa6d3e90fc922b63989060200160405180910390a3505050565b6000546001600160a01b0316331480159061094357503360009081526004602052604090205460ff16155b15610963576040516389211f8360e01b81523360048201526024016102db565b6000546001600160a01b03163314610b17576001600160a01b03808316600090815260056020526040902054168115610ab4576001600160a01b038116610a7557336001600160a01b0316836001600160a01b0316638da5cb5b6040518163ffffffff1660e01b8152600401602060405180830381865afa1580156109ec573d6000803e3d6000fd5b505050506040513d601f19601f82011682018060405250810190610a109190610f1e565b6001600160a01b031614610a485760405163201f22b160e01b81523360048201526001600160a01b03841660248201526044016102db565b6001600160a01b038316600090815260056020526040902080546001600160a01b03191633179055610b15565b6001600160a01b0381163314610aaf5760405163201f22b160e01b81523360048201526001600160a01b03841660248201526044016102db565b610b15565b6001600160a01b0381163314610aee5760405163201f22b160e01b81523360048201526001600160a01b03841660248201526044016102db565b6001600160a01b038316600090815260056020526040902080546001600160a01b03191690555b505b6001600160a01b038216600081815260036020908152604091829020805460ff191685151590811790915591519182527f9d51e22f2598dfd93e2bff4039ebd99ac607c2035dc00c52aaed5998743e6f2d91016107b6565b610b7d848484846001610c62565b610ba557604051635274afe760e01b81526001600160a01b03851660048201526024016102db565b50505050565b6000546001600160a01b031633146107585760405163118cdaa760e01b81523360048201526024016102db565b600080546001600160a01b038381166001600160a01b0319831681178455604051919092169283917f8be0079c531659141344cd1fd0a4f28419497f9722a3daafe3b4186f6b6457e09190a35050565b610c358383836001610cd4565b610c5d57604051635274afe760e01b81526001600160a01b03841660048201526024016102db565b505050565b6040516323b872dd60e01b60008181526001600160a01b038781166004528616602452604485905291602083606481808c5af192506001600051148316610cc2578383151615610cb5573d6000823e3d81fd5b6000883b113d1516831692505b60405250600060605295945050505050565b60405163a9059cbb60e01b60008181526001600160a01b038616600452602485905291602083604481808b5af192506001600051148316610d2e578383151615610d21573d6000823e3d81fd5b6000873b113d1516831692505b60405250949350505050565b6001600160a01b03811681146107fd57600080fd5b600080600060608486031215610d6457600080fd5b8335610d6f81610d3a565b92506020840135610d7f81610d3a565b929592945050506040919091013590565b600060208284031215610da257600080fd5b8135610dad81610d3a565b9392505050565b60008060408385031215610dc757600080fd5b8235610dd281610d3a565b946020939093013593505050565b600080600080600080600060e0888a031215610dfb57600080fd5b8735610e0681610d3a565b96506020880135610e1681610d3a565b95506040880135610e2681610d3a565b94506060880135610e3681610d3a565b9699959850939660808101359560a0820135955060c0909101359350915050565b60008060408385031215610e6a57600080fd5b8235610e7581610d3a565b91506020830135610e8581610d3a565b809150509250929050565b60008060408385031215610ea357600080fd5b8235610eae81610d3a565b915060208301358015158114610e8557600080fd5b634e487b7160e01b600052601160045260246000fd5b81810381811115610eec57610eec610ec3565b92915050565b80820180821115610eec57610eec610ec3565b600060208284031215610f1757600080fd5b5051919050565b600060208284031215610f3057600080fd5b8151610dad81610d3a56fea26469706673582212208e9854b89cc79592e04b1bf087ab083fe22e938b72082655881a42a691e38d1064736f6c634300081c0033",
  "linkReferences": {},
  "deployedLinkReferences": {}
}